:0B03B7000165000266000002630064A4
:1003D200D3EF9400EE940040090000EF1F70F11E6D
:0203E20080EEAB
:0103E40022F6
:1003E500438E80E4F589758ACD758CD4D28CD2A9DB
:0303F500D2AF2262
:03000B0002035598
:10035500C0E0C0D0C28D0567E56770020566B5646B
:100365000EE566B56309756600756700756501D0AC
:04037500D0D0E032D2
:100379007580807580801203E5E565B401FBC28C48
:100389007B787D057F0212000EE4F565D28C80E949
:0F03C200010C00010B00010A00010800010900F5
:0903F800D2B2000000C2B20022E2
:09040100D2B20000C2B2000022D8
:060399001202F4FF7E00D9
:10039F007D08EF30E7051203F88003120401EF2503
:0703AF00E0FFEE33FEDDEB81
:0103B6002224
:08029C008F598B5A8A5B895CC3
:1002A400E4FCECC39559503FAB5AAA5BA95C12031A
:1002B40099AB5DAA5EA95F120399AB60AA61A962BA
:1002C4001203997401255CF55CE4355BF55B7401FC
:1002D400255FF55FE4355EF55E74012562F562E441
:1002E4003561F5610C80BBC2B27F467E000203D249
:06032F008B688A69896AEF
:10033500E4FEEEC39F5018ED048EF0A42418AB68BC
:0F034500AA69A96A8E8275830012030D0E80E3E8
:010354002286
:10022700E508B40700506D900235F82828730202DC
:100237004A02025402026002026C0202780202843D
:10024700020290EF250CF50CF470498044EF250B62
:10025700F50BF4703F75080222C3E50C9FF50C708F
:100267003375080322EF250AF50AF4702775080489
:1002770022C3E50B9FF50B701B75080522EF250CB4
:10028700F50CB4FF0F75080622C3E50A9FF50A703F
:0402970003750801E2
:01029B002240
:02000E00AE053D
:10001000AD037563008D64EF146052147003020029
:10002000EE2402600302017EE4F555743D2555F887
:10003000E6FF743E2555F8A60774252555F8E6FF1A
:1000400074262555F8A607740D2555F8E6FF740E9D
:100050002555F8A6070555E555B417CFAF0612028A
:1000600027850C3D850B25850A0D02017EE4F5559B
:10007000743D2555F8E6FF743E2555F8A60774250E
:100080002555F8E6FF74262555F8A607740D255565
:10009000F8E6FF740E2555F8A607C374179555FFAB
:1000A000243DF8E6FDC374169555FC243DF8A605DD
:1000B00074252FF8E6FF74252CF8A607C37417954E
:1000C00055240DF8E6FF740D2CF8A6070555E555E7
:1000D000640B709CAF06120227850C3D850B2585AD
:1000E0000A0D850C54850B3C850A2402017EE4F53B
:1000F00055743D2555F8E4F674252555F8E4F67455
:100100000D2555F8E4F60555E555B417E4AF06128C
:100110000227E509D394175015743D2509F8A60C5C
:1001200074252509F8A60B740D2509F8A60AE5091A
:10013000D39401401CE509D394195015743B25094B
:10014000F8A60A74232509F8A60C740B2509F8A64D
:100150000BE509D39403401CE509D3941B50157497
:10016000392509F8A60B74212509F8A60A74092572
:1001700009F8A60C0509E509B41C03E4F509755D49
:1001800000755E00755F2575600075610075620D14
:0B0190007B007A00793D7F1802029C82
:0300000002019B5F
:0C019B00787FE4F6D8FD75816A0201E26D
:1002F400BB010689828A83E0225002E722BBFE0208
:09030400E32289828A83E493223A
:10030D00F8BB010DE58229F582E5833AF583E8F026
:10031D00225006E92582C8F622BBFE05E92582C8D2
:02032D00F222BA
:1001A700020379E493A3F8E493A34003F68001F2F2
:1001B70008DFF48029E493A3F85407240CC8C33359
:1001C700C4540F4420C8834004F456800146F6DF28
:1001D700E4800B01020408102040809003B7E47EFE
:1001E700019360BCA3FF543F30E509541FFEE4931D
:1001F700A360010ECF54C025E060A840B8E493A3E4
:10020700FAE493A3F8E493A3C8C582C8CAC583CA0E
:10021700F0A3C8C582C8CAC583CADFE9DEE780BEC6
:0103D100002B
:00000001FF
