:0E064600017300027400000271006401700074
:10068500D3EF9400EE940040090000EF1F70F11EB7
:0206950080EEF5
:010697002240
:10069800438E80E4F589758ACD758CD4D28CD2A925
:0306A800D2AF22AC
:03000B00020510DB
:0D051000C0E0C0F0C083C082C0D075D0082C
:10051D00C28D0575E57570020574AC71AD72AE7462
:10052D00FF120088ED4C7003757301AE74AF757CCE
:10053D00277D10120088ED4C70140570E570B40322
:10054D000D7570000576E576B40303757600AE740F
:10055D00AF75E4FCFD7B607AEAF9F81205E0AC08B2
:10056D00AD09AE0AAF0BEC4D4E4F7004F574F57539
:0B057D00D0D0D082D083D0F0D0E0328C
:030654000176002C
:10062400758080758080120698E573B401FBC28CD6
:100634007B787A007D05AF761201ABE4F573D28C3A
:0206440080E74D
:0F0657000117000116000115000110000111002C
:0906AB00D2B2000000C2B200222C
:0906B400D2B20000C2B200002223
:0606670012000EFF7E00F0
:10066D007D08EF30E7051206AB80031206B4EF25C7
:07067D00E0FFEE33FEDDEBB0
:010684002253
:080588008F618B628A638964B4
:10059000E4FCECC39561503FAB62AA63A964120608
:1005A00067AB65AA66A967120667AB68AA69A96AFC
:1005B00012066774012564F564E43563F56374011C
:1005C0002567F567E43566F5667401256AF56AE422
:1005D0003569F5690C80BBC2B27F467E0002068594
:10040B00E510B407005072900419F8282873020401
:10041B002E02043802044502045202045F02046CEB
:10042B00020479EF2517F517F4704E8049EF251666
:10043B00F516F47044751002803FC3E5179FF5174E
:10044B0070377510038032EF2515F515F4702A758A
:10045B0010048025C3E5169FF516701D75100580D9
:10046B0018EF2517F517B4FF10751006800BC3E5B1
:10047B00159FF515700375100185171285161385D9
:02048B00151446
:01048D00224C
:0602CF008B6B8A6C896D47
:1002D500EF14605104600302037EAF6F156FEF707A
:1002E5000302037EAB6BAA6CA96D12000EFDE4FE42
:1002F500E56E14FFEEC39F501BEEF582758300A3D8
:10030500AB6BAA6CA96D1200278E82758300120053
:10031500660E80DCAB6BAA6CA96D8E82758300EDD1
:1003250012006680B5AF6F156FEF604D7E0074FFEC
:10033500256EF582EE34FFF583AB6BAA6CA96D12C1
:100345000027FDE56E14FEEED394004020EE7A0002
:1003550024FFF582EA34FFF583AB6BAA6CA96D1215
:1003650000278E827583001200661E80DAAB6BAAA9
:090375006CA96DED12005480AC7E
:01037E00225C
:04048E008F618D628B
:10049200E4F563E563C395615065E562048563F045
:1004A200A42418FF74642563F8A607E56375F005B4
:1004B200A4FFC3E5119FE5F06480F8748098402A98
:1004C20074642563F8E6FFE511C39F501DE563756B
:1004D200F005A4FFC3E5119FFF2448F8A61274306B
:1004E2002FF8A61374182FF8A6147B007A0079123D
:1004F200756E03756F017F011202CF0563809474DC
:0D050200632561F8E60511B51103E4F5115C
:01050F0022C9
:0201AB00AE059F
:1001AD008A718B72EF14605214700302028724025D
:1001BD0060030202B2E4F56074482560F8E6FF744E
:1001CD00492560F8A60774302560F8E6FF743125DF
:1001DD0060F8A60774182560F8E6FF74192560F815
:1001ED00A6070560E560B417CFAF0612040B8512A4
:1001FD00488513308514180202B2E4F56074482561
:10020D0060F8E6FF74492560F8A60774302560F89C
:10021D00E6FF74312560F8A60774182560F8E6FF2F
:10022D0074192560F8A607C374179560FF2448F864
:10023D00E6FDC374169560FC2448F8A60574302FAE
:10024D00F8E6FF74302CF8A607C3741795602418D0
:10025D00F8E6FF74182CF8A6070560E560640B70CE
:10026D009CAF0612040B8512488513308514188532
:10027D00125F85134785142F802BE4F56074482594
:10028D0060F876FF74302560F876FF74182560F8F5
:10029D0076FF0560E560B417E4AF0612040B7D042C
:1002AD007F0612048E75650075660075673075687A
:1002BD0000756900756A187B007A0079487F18020D
:0202CD000588A2
:0300000002037F79
:0C037F00787FE4F6D8FD7581760203C695
:10000E00BB010689828A83E0225002E722BBFE02F0
:09001E00E32289828A83E4932223
:10002700BB010CE58229F582E5833AF583E022508E
:1000370006E92582F8E622BBFE06E92582F8E222D8
:0D004700E58229F582E5833AF583E49322F2
:10005400BB010689828A83F0225002F722BBFE018B
:02006400F32285
:10006600F8BB010DE58229F582E5833AF583E8F0D0
:10007600225006E92582C8F622BBFE05E92582C87C
:02008600F22264
:10008800BC000BBE0029EF8DF084FFADF022E4CC5C
:10009800F875F008EF2FFFEE33FEEC33FCEE9DEC25
:1000A800984005FCEE9DFE0FD5F0E9E4CEFD22ED6B
:1000B800F8F5F0EE8420D21CFEADF075F008EF2FB5
:1000C800FFED33FD4007985006D5F0F222C398FDA6
:0500D8000FD5F0EA2243
:1005E000C2D5E830E70FB2D5E4C39BFBE49AFAE446
:1005F00099F9E498F8EC30E717B2D5120616120113
:1006000019E4C39BFBE49AFAE499F9E498F88003AF
:1006100012011930D50DE4C39FFFE49EFEE49DFD59
:04062000E49CFC2238
:10038B00020624E493A3F8E493A34003F68001F25E
:10039B0008DFF48029E493A3F85407240CC8C33373
:1003AB00C4540F4420C8834004F456800146F6DF42
:1003BB00E4800B0102040810204080900646E47E86
:1003CB00019360BCA3FF543F30E509541FFEE49337
:1003DB00A360010ECF54C025E060A840B8E493A3FE
:1003EB00FAE493A3F8E493A3C8C582C8CAC583CA29
:1003FB00F0A3C8C582C8CAC583CADFE9DEE780BEE1
:010666000093
:1000DD0075F008758200EF2FFFEE33FECD33CDCCDA
:1000ED0033CCC58233C5829BED9AEC99E58298405D
:1000FD000CF582EE9BFEED9AFDEC99FC0FD5F0D63A
:10010D00E4CEFBE4CDFAE4CCF9A88222B800C1B963
:10011D000059BA002DEC8BF084CFCECDFCE5F0CBA1
:10012D00F97818EF2FFFEE33FEED33FDEC33FCEBDA
:10013D0033FB10D703994004EB99FB0FD8E5E4F995
:10014D00FA227818EF2FFFEE33FEED33FDEC33FC82
:10015D00C933C910D7059BE99A4007EC9BFCE99A76
:10016D00F90FD8E0E4C9FAE4CCFB2275F010EF2FBB
:10017D00FFEE33FEED33FDCC33CCC833C810D707BB
:10018D009BEC9AE899400AED9BFDEC9AFCE899F8F6
:0E019D000FD5F0DAE4CDFBE4CCFAE4C8F92289
:00000001FF
